:10000000FC7F00206502000055020000590200003C
:1000100000000000000000000000000000000000E0
:100020000000000000000000000000005D02000071
:100030000000000000000000610200007D030000DD
:1000400010B5064C2378002B07D1054B002B02D0AE
:10005000044800E000BF0123237010BD1000002001
:1000600000000000B80F000008B5084B002B03D0BB
:100070000748084900E000BF07480368002B03D089
:10008000064B002B00D0984708BDC046000000007A
:10009000B80F0000140000200C0000200000000039
:1000A000164A174B117800290AD116491878097891
:1000B0004118C9B21970802082210002C905C861A7
:1000C00011780131C9B211701978F02902D8197864
:1000D000092909D80B4908784042C0B2087018783D
:1000E00009784118C9B2197012781B789A4204D164
:1000F000802282231202DB05DA6170472C00002087
:10010000010000200000002010B5C3699C07FCD44A
:1001100003680224A3430360C46901231C42FBD18A
:100120000468234303600368DC07FCD4C46901232B
:100130001C42FBD1C469DC401C42F7D1084B1A4376
:100140000260C3695A07FCD4C0239B0243608181CB
:10015000C3699C07FCD4036802221343036010BDEB
:1001600004000040037EDA07FCD5018570470000DB
:10017000027E01235107FBD5428B1A4207D1428BE5
:10018000DA401A4203D1428B92081A4202D0034B42
:1001900001221A70008DC0B27047C0462D000020A9
:1001A000204B04215A680A435A601F4B80215A6928
:1001B0000A435A611D4A012313701378D80704D5E6
:1001C0001A4B59681A4B1942F7D11A4B1A49022097
:1001D0009982998A01439982D968C807FCD5174941
:1001E000174B196217490E2308780340FAD11448B7
:1001F00043621548037008780E231842FBD1104B58
:100200000220187708780E231842FBD10F4B1B7879
:100210009907FBD50E4B13625168054B1942FBD170
:100220007047C0460040004100080040001C0040EC
:10023000FD070000001400401C040000710B0000CA
:10024000001000402C1000402810004030100040EA
:10025000070302000EBEFEE70DBEFEE705BEFEE789
:1002600002BEFEE70E4A0F4838B5824204D10E4A5C
:100270000E4B93420ED10AE00D4C9442F7D000236E
:10028000D1188842F3D9E55804330D60F8E700F03F
:1002900011F804E09342FAD2002102C3FAE7FEE724
:1002A0000000002010000020BC01002010000020F1
:1002B000BC0F0000284A38B51368141C01331ED047
:1002C000D1B200291BD1254B187801231840244BAB
:1002D0000AD11D6823498D4201D118600FE01960D1
:1002E000214901390029FCD11960236883F308886A
:1002F000FF239A431D4B9A60174B5B681847802277
:1003000082231202DB059A61FFF74AFF62B600F012
:100310002DFB802282231202DB059A60144B154AC2
:10032000C0215A60114A0906106A0002000A0143FE
:10033000116200229A6007221A600F4B1B78002B73
:10034000FBD100F089FB0028F7D0012000F028F84D
:1003500000F098F8FCE7C04600200000000C0040C8
:10036000FC7F00203581730748E8010000ED00E0C4
:1003700010E000E0E70300002E00002008B5FFF7C2
:100380008FFE00F069F808BD08B5031C081C111C9D
:100390009847024B64221A8008BDC04636000020F0
:1003A000012804D1024B034A1A60034B18707047AE
:1003B000A0000020600D00003800002030B50A1CAD
:1003C0001C4985B00978031C00292AD0042A01D1D0
:1003D000006804E0022A01D1008800E000785200A1
:1003E00004A98B180B3B9C1AA3420BD00F21014090
:1003F000092902D83025294300E037311970000956
:10040000013BF1E701A930230B7078234B700A20E0
:100410008B1898700D20D870074B04321B68D86871
:1004200003E005490968C868191CFFF7ADFF05B06E
:1004300030BDC0462F000020A000002072B6EFF3B0
:100440000883044A1360036883F3088843681847E5
:100450007047C046A4000020084B1A88002A03D029
:100460001A88013A92B21A80054B1A88002A03D0E2
:100470001A88013A92B21A807047C04636000020AE
:1004800034000020F0B591B008A9CC4A0B1C31CA49
:1004900031C351CA51C360CA60C3C94BC9489A68C5
:1004A0007A255203520F92005258C74902609C6845
:1004B000A4B262430C60C54900240A60C44A1460B7
:1004C000C44C2570C44CC54D2368281C1B694021B1
:1004D0009847002802D0C24B64221A80C14B0022E8
:1004E0001860C14B1D60C14BC04DBE4F1A602A68D9
:1004F0003B689A42E6D2BC4B1B681A78FF2A00D1AF
:1005000014E2232A00D0EBE1B94E3378002B06D059
:10051000B14BB8491B680222D868FFF735FFAD4BD5
:100520001B78532B3CD13B682A6893421ED9AE48B6
:1005300001322A609A1AB04B01681B6801310160D0
:10054000AE4E9A4201D2326000E03360A048326879
:100550000068049000F0DEFB336829685A182A60AE
:10056000A14A1668F1181160A54A13702B68013B67
:100570002B609D4B1A68013A1A60A14B9E4A1B786A
:1005800011688B420AD222689148C91A00689269A0
:100590009047002802D0924B64221A80C0468DE119
:1005A000522B0AD18A48944A2368006811685B6913
:1005B000039098476422934B0DE04F2B05D1844B59
:1005C0008D4A1B6812681A7078E1482B05D1804B60
:1005D000894A1B6812681A8070E1572B05D17C4B41
:1005E000854A1B6812681A6068E16F2B03D1784B4B
:1005F0000121186807E0682B08D1754B7E481B68FD
:1006000002211B880360FFF7D9FE57E1772B06D143
:100610006F4B79481B6804211B680360F3E7472B85
:1006200013D1754B1868FFF709FF774B1B6883F3ED
:10063000088862B6754B1B78002B00D13EE1664BF3
:1006400006201B681B68984738E1542B04D101230E
:100650003370614B1B6864E04E2B0CD13378002B58
:1006600006D15D4B63491B680222D868FFF78CFEF8
:100670000023337022E1562B57D123686449D86890
:100680000122FFF781FE23686249D8680322FFF741
:100690007BFE614D2368291CD8680122FFF774FE98
:1006A00023685E49D8680D22FFF76EFE2368291C77
:1006B000D8680122FFF768FE4B4F4C4D5849002384
:1006C00039602B603A1C281C13685E1C16601B786E
:1006D0000593002B03D0036801330360F4E73E4E1B
:1006E0002A683368D868FFF74FFE33684A49D868EC
:1006F0000122FFF749FE059929604A4939603A4AC3
:100700001368581C10601B78002B04D0374B1A68F4
:1007100001321A60F3E733682A68D868FFF734FEBD
:100720003368D86833490222C6E0334A582B17D1C0
:10073000244E264D366813682A68B10093420AD2C7
:100740001F4D5808E861384828801D4D287DC60790
:10075000FBD55B18F2E7204B34491B68D868AAE048
:10076000592B79D112681A4B3149002A02D11B68E2
:100770000B606CE0124D086819686B68104E80259C
:10078000AB4392087360002A61D02A4B0C4D2B803A
:100790000B4E337DDD07FBD500230A4D2D680195F7
:1007A000AD08AB4203D3244D054E358046E093425D
:1007B000F9D09D00465901334E51EEE7400D00003F
:1007C0000040004158000020500000204C00002054
:1007D0009C00002048000020A00000205C000020B9
:1007E000340000204000002044000020540000207D
:1007F0002F000020A00D0000A8000020AC00002069
:100800003C00002036000020A4000020380000201A
:100810007C0D0000A50D00007E0D0000A90D00005C
:10082000800D00008C0D000002A5FFFF950D00005B
:100830003000002044A5FFFF04A5FFFF3F4E357D9B
:10084000EE07FBD59D0049194019D21A9BE73C4B96
:100850003C491B68D8682EE05A2B2FD13A4B1768B9
:100860001D680026EF19BD4206D02878311C00F023
:1008700015F90135061CF6E7314B34491B68012296
:10088000D868FFF781FD07230F223240111C36097B
:100890003031092A00DD07311820C0186A4681541A
:1008A000013BF1D2236806A9D8680822FFF76CFD46
:1008B00023682749D8680322FFF766FD254B7A2273
:1008C0001A70254B00221A60244B1B7893422DD0BE
:1008D0001B4B23491B680122D868FFF755FD25E013
:1008E000111C3039C8B21C4B092804D81D682A01D4
:1008F000114319601AE0111C4139052903D81E68FB
:10090000373A310106E0111C6139052904D818680D
:10091000573A01010A4308E02C2A03D10A4A196810
:10092000116001E00B490A7000221A600D4B1A6831
:1009300001321A600C4B1A680132D5E500400041C3
:10094000A0000020990D00009C0000209D0D0000DB
:100950009F0D000048000020A80000202F0000206C
:10096000A30D0000540000204400002010B51C4BD3
:1009700001201A78022402431A701A4B0F221978A8
:100980009143197019782143197017490C78204345
:10099000087019780A401A701A7820210A431A70D0
:1009A000124B1021DA690A43DA61114B40221A60B6
:1009B000104B5C68104B1C40FAD180220F48104944
:1009C0005203FFF7A1FB0F4B1C700F4B1C700F4B1A
:1009D0001C700F4B1C700F4B1C700F4B1C7010BD0C
:1009E000560000413B000041570000410008004014
:1009F000D81C0040001C0040FD0700000010004211
:100A00002AF60000B000002037010020B1000020CD
:100A1000B4000020380100203501002008B5C1B223
:100A20000248FFF79FFB012008BDC04600100042AE
:100A3000024B187E4007C00F7047C04600100042AE
:100A400008B5FFF7F5FF0028FBD00248FFF790FB41
:100A500008BDC0460010004208B5FFF7E9FF0023BB
:100A6000984205D0FFF7ECFF031C233B5A42534149
:100A7000181C08BD70B5041C0D1C4618B44204D0E7
:100A80002078FFF7CBFF0134F8E7281C70BD10B5C4
:100A9000041CFFF7D5FF2070012010BD0B0A584041
:100AA000034B4000C05A0902484080B27047C0461C
:100AB000B80D0000F7B50024051C0F1C261CBC4215
:100AC00020D0FFF7BDFF114BC0B21B780190002B67
:100AD0001AD1311CFFF7E2FF0D4B061C1A88002AC1
:100AE00004D10C4A11782A1C002907D001996A1CEC
:100AF0002970802F02D11988013919800134A4B2DC
:100B0000151CDCE7301C00E00120FEBD3501002093
:100B1000B200002036010020F0B53E4E85B0002224
:100B200003900C1C32703C4B914201D1012201E038
:100B30003A490C801A707F231C4201D080349C43B8
:100B4000FFF77EFF3378C0B2002B07D00025357049
:100B5000FFF776FF3378C0B2AB4236D1432803D0DB
:100B6000712853D01528EBD1012300930120FFF702
:100B700055FF0098FFF752FF00998025C843C0B287
:100B8000FFF74CFF039B00270293244A1388002B96
:100B90001DD1214901930978002918D10198FFF747
:100BA0003DFF391C0198FFF779FF013D071C002D1F
:100BB000EBD1000AC0B2FFF731FFF8B2FFF72EFF0A
:100BC000FFF73EFF3378002B0AD035701FE0029903
:100BD000013B09781380029B019101330293DDE709
:100BE000C0B2062807D1009B03990133DBB28031E4
:100BF0000093803C0391002CB8D10420FFF70EFF36
:100C0000FFF71EFF044B01251C7000E00025281C87
:100C100005B0F0BD3501002036010020B2000020F3
:100C2000F0B5384C87B0002301902370994201D170
:100C3000012301E0344A1180344A642613704320B2
:100C4000FFF7ECFE324FFFF7F3FE002803D1002F31
:100C500003D0013FF7E7002F03D1013E002EEED174
:100C60004DE00125FFF7ECFE2378002B38D1C0B210
:100C70000290012805D004283DD10620FFF7CEFEC2
:100C800039E005AE0221301CFFF714FF01988021E6
:100C9000FFF710FF23780390002B18D1FFF7D0FE49
:100CA0000702FFF7CDFEBFB223783F18BFB2012B7A
:100CB0000DD0039B9F4207D13378AB4204D1EB4365
:100CC0007278DBB29A4204D01820FFF7A7FE002307
:100CD00003E00620FFF7A2FE029B2278002A02D042
:100CE000002626700BE0012B05D1019A6B1C803287
:100CF000DDB20192B6E7054A002313700126301CCD
:100D000007B0F0BD35010020B20000203601002000
:100D100000350C0010B50023934203D0CC5CC454C2
:100D20000133F9E710BD0000F8B5C046F8BC08BCB7
:100D30009E467047F8B5C046F8BC08BC9E46704752
:100D4000080000001000000020000000400000002B
:100D5000800000000001000000020000000400000C
:100D60001D0A0000410A0000310A0000750A000057
:100D70008F0A0000190B0000210C000076002000F3
:100D800044656320203420323031370031333A302B
:100D9000303A343800580A0D00590A0D005A002321
:100DA0000A0D003E00322E30005B41726475696EA0
:100DB0006F3A58595A5D00000000211042206330FC
:100DC0008440A550C660E770088129914AA16BB1A3
:100DD0008CC1ADD1CEE1EFF131121002733252224B
:100DE000B5529442F772D662399318837BB35AA3F3
:100DF000BDD39CC3FFF3DEE362244334200401141B
:100E0000E664C774A44485546AA54BB52885099542
:100E1000EEE5CFF5ACC58DD55336722611163006EA
:100E2000D776F6669556B4465BB77AA71997388792
:100E3000DFF7FEE79DD7BCC7C448E5588668A778AA
:100E40004008611802282338CCC9EDD98EE9AFF9E2
:100E5000488969990AA92BB9F55AD44AB77A966A8A
:100E6000711A500A333A122AFDDBDCCBBFFB9EEB32
:100E7000799B588B3BBB1AABA66C877CE44CC55C5A
:100E8000222C033C600C411CAEED8FFDECCDCDDD82
:100E90002AAD0BBD688D499D977EB66ED55EF44E2A
:100EA000133E322E511E700E9FFFBEEFDDDFFCCFD2
:100EB0001BBF3AAF599F788F8891A981CAB1EBA126
:100EC0000CD12DC14EF16FE18010A100C230E320A2
:100ED0000450254046706760B9839893FBA3DAB34A
:100EE0003DC31CD37FE35EF3B1029012F322D232F2
:100EF0003542145277625672EAB5CBA5A89589851A
:100F00006EF54FE52CD50DC5E234C324A014810441
:100F10006674476424540544DBA7FAB79987B897E9
:100F20005FE77EF71DC73CD7D326F2369106B01691
:100F300057667676154634564CD96DC90EF92FE9A9
:100F4000C899E9898AB9ABA94458654806782768E1
:100F5000C018E1088238A3287DCB5CDB3FEB1EFB89
:100F6000F98BD89BBBAB9ABB754A545A376A167A31
:100F7000F10AD01AB32A923A2EFD0FED6CDD4DCD59
:100F8000AABD8BADE89DC98D267C076C645C454C81
:100F9000A23C832CE01CC10C1FEF3EFF5DCF7CDF29
:100FA0009BAFBABFD98FF89F176E367E554E745ED1
:0C0FB000932EB23ED10EF01E0000000097
:100FBC000114000069000000410000000000000066
:040000030000026592
:00000001FF
